:020000020000FC
:0200000025C019
:02000C00A3C18E
:100040003AC23F065B4F666D7D077F6F08E00EBFCB
:100050000FEF0DBF00E00093C10000E304B90FE013
:1000600005B901E0009368000FE000936B000FE317
:1000700007B900E008B90FEF0AB900E00BB900E0DA
:1000800004BD05E005BD01E000936E0000E00093B3
:10009000000100930101009302010093030100930A
:1000A00004010093050100930F01009310010093D8
:1000B0000C0100930D0100930E01009311010093B8
:1000C0001201009313010093140100931501009392
:1000D0001601009317010093180100930901009382
:1000E0000A0100930B010093070101E00093060150
:1000F00000930801789404D007D00BD127D1FBCF0F
:1001000008B1037008B9089500910F01013039F06A
:10011000023031F0033029F0043021F004C01EC059
:1001200038C077C0B6C000910C01003039F0013002
:1001300049F0023059F0033069F000C0209102010B
:1001400034E008952091030138E0089520910401DE
:1001500030E108952091050130E2089500910C01ED
:10016000003039F0013049F0023059F0033069F0C5
:1001700000C02091060130E108952091070130E28E
:1001800008952091080134E008952091090138E094
:10019000089500910C01003039F0013091F00230E7
:1001A000E9F0033041F100C02091020134E00091F8
:1001B0001001013069F500910E01003049F530E081
:1001C00008952091030138E000911001013001F5FC
:1001D00000910E010030E1F430E008952091040117
:1001E00030E100911001003099F400910E010030CF
:1001F00079F430E008952091050130E2009110017A
:10020000003031F400910E01003011F430E0089517
:10021000089500910C01003039F0013091F0023066
:10022000E9F0033041F100C02091060130E1009176
:100230001001003069F500910E01003049F530E001
:1002400008952091070130E200911001003001F57E
:1002500000910E010030E1F430E008952091080192
:1002600034E000911001013099F400910E0100304A
:1002700079F430E008952091090138E000911001EF
:10028000013031F400910E01003011F430E0089596
:10029000089500910C01003039F0013091F00230E6
:1002A000E9F0033041F100C02091130134E00091E6
:1002B0001001013069F500910E01003049F530E080
:1002C00008952091140138E000911001013001F5EA
:1002D00000910E010030E1F430E008952091110109
:1002E00030E100911001003099F400910E010030CE
:1002F00079F430E008952091120130E2009110016C
:10030000003031F400910E01003011F430E0089516
:100310000895F0E0E2E4022F0A3010F000E0202F10
:10032000E20F08F4F39544910BB10078402B4BB9E0
:10033000009117010370032B08B900910C0103957C
:10034000043009F400E000930C01089502E30A95DB
:10035000F1F708950F930FB70F931F9300911601B4
:10036000003081F003B10F700F3061F000E00093B6
:10037000160100931501009117010D7F00931701DD
:1003800008B994C003B103FD28C000910F01039583
:10039000053009F400E000930F012C982D9800918E
:1003A00017010E7F0093170100910F01023011F425
:1003B0002C9A0BC0033011F42D9A07C0043029F495
:1003C0000091170101600093170100910F010230A5
:1003D00018F400930A016AC069C000910F0102304D
:1003E00031F0033019F1043009F060C03FC003B1AF
:1003F00002FD07C00091100111E0012700931001D8
:1004000055C003B100FD08C000911001003011F487
:10041000A3D14CC079D14AC003B101FD47C00091BE
:100420001001003011F4B8D141C082D103B102FDF6
:1004300007C00091100111E001270093100136C0A0
:1004400003B100FD08C000911001003011F4D8D1B3
:100450002DC02AD22BC003B101FD28C0009110018C
:10046000003011F4EED122C06DD220C003B102FDE4
:1004700007C00091100111E001270093100116C080
:1004800003B100FD08C000911001003011F49DD2AD
:100490000DC0DBD20BC003B101FD08C000911001FB
:1004A000003011F4B5D202C0E7D200C01F910F9105
:1004B0000FBF0F9118950F930FB70F931F93EF93E3
:1004C000FF9300911601013031F40091170112E001
:1004D00001270093170100910D01039500930D0171
:1004E0001EE1011791F400E000930D0100910E014F
:1004F00011E0012700930E01003021F00BB10068DC
:100500000BB903C00BB10F770BB900910F0102308B
:1005100061F0009100010395009300011CE30117B5
:1005200021F400E00093000107D0FF91EF911F91AB
:100530000F910FBF0F911895009101010395009342
:1005400001010C3329F400E00093010125D000C023
:10055000009115010130F9F4009116010130D9F034
:1005600000910501109112010117A9F400910401F5
:1005700010911101011779F40091030110911401F8
:10058000011749F40091020110911301011719F4A8
:1005900001E0009316010895009102010395009374
:1005A00002010A3021F400E00093020101D0089515
:1005B00000910301039500930301063021F400E04C
:1005C0000093030101D00895009104010395009365
:1005D00004010A3049F400E0009304010091050190
:1005E000039500930501089500910501023051F42F
:1005F00000910401043031F400E000930401009301
:10060000050101D0089500910601039500930601AC
:100610000A3041F400E000930601009107010395C0
:100620000093070100910901003059F4009108017D
:10063000023061F0043011F1063001F10930F1F0BF
:1006400035C0009108010130C9F030C000910701A8
:10065000023059F4009106010930B9F501E0009328
:10066000060100E00093070131C0033071F501E09D
:100670000093060100E00093070128C000910701E4
:10068000033059F4009106010130F9F401E00093C0
:10069000060100E00093070119C00430B1F401E045
:1006A0000093060100E00093070110C000910701CC
:1006B000033059F400910601023039F401E000934F
:1006C000060100E00093070101C0089500910801B0
:1006D0000395009308010A3041F400E000930801FB
:1006E000009109010395009309010091090101306E
:1006F00051F400910801033031F401E00093080146
:1007000000E00093090108950091020103950A3069
:1007100061F400E0009302010091030103950630AB
:1007200009F400E000930301089500930201089585
:1007300000910201003061F409E000930201009190
:100740000301003009F406E00A95009303010895BF
:100750000A950093020108950091040103950A305F
:1007600061F400E00093040100910501039503305A
:1007700009F400E00093050108951091050112307D
:1007800041F4043030F000E00093040100930501CF
:10079000089500930401089500910401003091F43C
:1007A00010910501103039F403E00093040112E0C8
:1007B00010930501089509E0009304011A95109320
:1007C000050108950A950093040108950091090117
:1007D000003061F400910801023071F0043071F0D2
:1007E000063061F0093051F02FE1089500910801C1
:1007F000013021F02FE108952CE108952EE10895B4
:10080000E5DF0091060103950A3049F400E000930A
:1008100006010091070103950093070102C00093B0
:10082000060100910701EAE00E9F00910601000E0B
:10083000021630F001E00093060100E0009307018A
:100840000895009106010130F1F400910701003094
:10085000D1F4BCDF2E3149F02C3171F001E000936E
:10086000060103E000930701089500E000930601EC
:1008700003E000930701089508E00093060102E0F9
:1008800000930701089500910601003049F409E042
:1008900000930601009107010A950093070108954E
:1008A0000A950093060108950091080103950A3006
:1008B000B1F400E0009308010091090103950130B3
:1008C00059F410910801133038F000E00093090149
:1008D00001E00093080113C00093090110C00093C8
:1008E000080100910901013051F400910801033021
:1008F00030F001E00093080100E00093090166DF99
:1009000000910701EAE00E9F00910601000E021619
:10091000C0F02E3149F02C3171F001E00093060156
:1009200003E0009307010DC000E00093060103E01F
:100930000093070106C008E00093060102E000935F
:100940000701089500910801013059F4009109014F
:10095000003039F402E00093080101E0009309013E
:1009600010C000910801003049F409E0009308012B
:10097000009109010A950093090103C00A950093AB
:10098000080124DF00910701EAE00E9F00910601B3
:10099000000E0216C8F0022F0C3181F00E3139F032
:1009A00001E00093060103E0009307010DC000E0A1
:1009B0000093060103E00093070106C008E00093DE
:1009C000060102E000930701089501E0009315017C
:1009D0000091110103950A3061F400E000931101C8
:1009E000009112010395033009F400E00093120115
:1009F000089510911201123041F4043030F000E0FB
:100A000000931101009312010895009311010895BC
:100A100001E00093150100911101003091F4109153
:100A20001201103039F403E00093110112E0109329
:100A30001201089509E0009311011A951093120113
:100A400008950A9500931101089501E0009315019E
:100A50000091130103950A3061F400E00093130143
:100A6000009114010395063009F400E0009314018D
:100A7000089500931301089501E00093150100917A
:100A80001301003061F409E0009313010091140197
:100A9000003009F406E00A950093140108950A95C0
:060AA0000093130108950C
:00000001FF
